:04000000D3EF04F046
:1008000000D007000000160E236004D0848084848A
:1008100084821200190E236004D084908484849210
:1008200012001C0E236004D0848084848492120001
:100830001F0E236004D08480849484921200220EC0
:10084000236004D08480849484821200250E236067
:1008500004D08490849484821200280E236004D0F3
:100860008490848484821200849084948492120000
:10087000000E296E94902F0E286EC00EE82EFED723
:10088000282EFCD7948082B0FED71A0EE82EFED711
:1008900000D082A0292A350EE82EFED700F082B0C3
:1008A000292A82B0FED7B3EC04F0226EB3EC04F038
:1008B000B3EC04F0236EB3EC04F0B3EC04F0216E5F
:1008C0001200000E246E82A0FED7080EE82EFED77E
:1008D00000D082A002D0000E246E0E0EE82EFED7AD
:1008E00000D082A004D0010E246E82B0FED7245026
:1008F0001200000E256E08D02550110FD96EDA6A4D
:10090000DF50E0EC04F0252A2550110FD96EDA6A89
:10091000DF50D8B412002528D8B41200EDD7700EDD
:10092000D36E030E246E980EE82EFED7242EFCD72D
:100930008B90200EAC6E800EAB6E000EB86E0C0E5F
:10094000AF6E12008FEC04F0E6EC04F0EBEC04F078
:10095000EAEC04F003EC04F0C4EC04F079EC04F0ED
:10096000E9EC04F0F1D7000E266E080E276E61EC5C
:1009700004F0256E265026242510266E27062750C3
:10098000D8A4F5D72650120084B002D084A4120057
:1009900084B002D084B4120084A002D084A41200D7
:1009A00084B01200120000EE01F0230EEE6AE80699
:1009B000FDE1000EF86E080EF76E0001A2EF04F0E4
:1009C000246EACA2FED724C0ADFF120038EC04F0B8
:0809D0001200120012001200D7
:020000040020DA
:08000000FFFFFFFFFFFFFFFF00
:020000040030CA
:0E00000000091F1EFF8385FF0FC00FE00F4099
:00000001FF
