:0400000007EF00F016
:0A0008004D8212ED0CF0C2EF0BF078
:100800000001000A006400E80310274C61737420A3
:1008100054656D7065746174757265004661696CCC
:100820006564204448543131000A476F642069737D
:1008300020676F6F6400543A20256920430A0054F2
:100840003A20256920526100483A20256920256315
:1008500000543A202569204300543A202569204657
:1008600000543A202569204B0053656E736F7273F4
:07087000000A543A200000C9
:100878001A0E486EF80EE82EFED7482EFCD700D088
:1008880080A480B61AD046C00DF0510E0E6E88C0F6
:100898000FF0106A14EC06F047C00DF0480E0E6E0B
:1008A80087C00FF0106A000E126E250E116E14EC40
:1008B80006F0000E0001856F120080A480A639D0D2
:1008C800930E2E6E880E2F6E430E306E00018851E7
:1008D80000EC0CF009C02BF00AC02CF00BC02DF076
:1008E80040EC05F02BC037F02CC038F02DC039F0A3
:1008F8001AEC08F037C049F038C04AF046C00DF08D
:10090800610E0E6E49C00FF04AC010F014EC06F0EC
:1009180047C00DF0480E0E6E87C00FF0106A000E2B
:10092800126E250E116E14EC06F0010E0001856F93
:10093800120080B480B647D0D60E2E6EF50E2F6EFC
:10094800430E306E660E106EE60E116E3F0E126E7E
:100958000001885100EC0CF009C00DF00AC00EF03F
:100968000BC00FF0BAEC06F00DC02BF00EC02CF047
:100978000FC02DF040EC05F02BC037F02CC038F03C
:100988002DC039F01AEC08F037C049F038C04AF0E9
:1009980046C00DF03F0E0E6E49C00FF04AC010F071
:1009A80014EC06F047C00DF0480E0E6E87C00FF02D
:1009B800106A000E126E250E116E14EC06F0020E6F
:1009C8000001856F120080A4120080A61200000E9C
:1009D8002E6E000E2F6E420E306E000E1F6EA00E91
:1009E800206E400E216E000E106E100E116E410E1C
:1009F800126E0001885100EC0CF009C00DF00AC01D
:100A08000EF00BC00FF0BAEC06F00DC01CF00EC0D3
:100A18001DF00FC01EF0A7EC07F01CC02BF01DC086
:100A28002CF01EC02DF040EC05F02BC037F02CC088
:100A380038F02DC039F01AEC08F037C049F038C04A
:100A48004AF046C00DF0590E0E6E49C00FF04AC06C
:100A580010F014EC06F047C00DF0480E0E6E87C07B
:100A68000FF0106A000E126E250E116E14EC06F0CF
:100A7800030E0001856F12002DC031F0326A336A0F
:100A88002C34313601E332803150366E30C031F0CB
:100A9800326A336A2F34313601E332803150356E91
:100AA8003650D8B40AD03550365CD8B00DD0365050
:100AB800355C316E180E316407D02EC02BF02FC074
:100AC8002CF030C02DF012003550D8B40AD0365072
:100AD800355CD8B00DD03550365C316E180E3164A7
:100AE80007D02BC02BF02CC02CF02DC02DF01200FD
:100AF800060E346E2DBE348E30BE348C2C8EFF0E16
:100B08002B16FF0E2C16000E2D162F8EFF0E2E16EE
:100B1800FF0E2F16000E30163550365CD8B01BD09D
:100B2800D8902E362F363036350636503518D8B48C
:100B38000DD0340634C031F0070E3116D8B406D0C3
:100B4800EFD7D8902D322C322B32362A3550361822
:100B5800D8B41FD0F6D73650355CD8B01AD0D89054
:100B68002B362C362D36360636503518D8B40DD0DF
:100B7800340634C031F0070E3116D8B406D0EFD79A
:100B8800D89030322F322E32352A35503618D8A424
:100B9800F7D734AE0CD0FF0E2B1AFF0E2C1AFF0E0F
:100BA8002D1A010E2B26000E2C22000E2D2234ACFD
:100BB8000CD0FF0E2E1AFF0E2F1AFF0E301A010E40
:100BC8002E26000E2F22000E3022000E346E2B50DF
:100BD8002E262C502F222D50302230AE0ED0FF0E54
:100BE8002E1AFF0E2F1AFF0E301A010E2E26000E97
:100BF8002F22000E3022010E346E2EC001F02FC0BD
:100C080002F030C003F036C004F034C005F083ECC5
:100C180008F001C02BF002C02CF003C02DF0120028
:100C28000F0E166E91D0250E1918D8B407D00D5096
:100C3800D96EDA6A19C0DFFF0D2A86D0000E146E4D
:100C480008D01650D96EDA6ADF50196E020E1626D1
:100C5800EED70E2A0E04136E13C0F6FF080EF76EB9
:100C68000800F5CF19F01950000AD8B47AD0630AF1
:100C7800D8B4E7D7070AD8B403D00D0AD8A4D7D771
:100C88001650D96EDA6ADECF17F0DDCF18F0020EF3
:100C9800162618AE06D0030E1412176C181ED8B0FC
:100CA800182A010E196E1950020DF350010F136E18
:100CB80013C0F6FF080EF76E0900F550175C09001F
:100CC800F5501858D8A005D0192A050E1918D8A417
:100CD800EAD714C013F0030E1316D8B406D00D507B
:100CE800D96EDA6A2D0EDF6E0D2A19C015F028D0DC
:100CF8001550020DF350010F136E13C0F6FF080EC6
:100D0800F76E0900F5CF03F00A00F5CF04F017C01D
:100D180001F018C002F0F7EC0AF001C008F002C0B8
:100D280009F0000E0B6E0A0E0A6E6BEC0BF0085001
:100D3800300F196E0D50D96EDA6A19C0DFFF0D2A0F
:100D480015061528D8A4D4D70E2A0E04136E13C07E
:100D5800F6FF080EF76E0800F5CF19F01950D8A461
:100D680062D70D50D96EDA6ADF6A12000FC013F02D
:100D7800146A156A0E34133601E314801350166E84
:100D88001650D8A407D0000E0D6E000E0E6E000E81
:100D98000F6E120012C013F0146A156A113413365C
:100DA80001E3148013501B6E1B50D8A407D0000E0B
:100DB8000D6E000E0E6E000E0F6E12001B507B0F94
:100DC80016260FC01BF012501B1A800E1B160E8E13
:100DD800118EFF0E1016FF0E1116000E1216000EC1
:100DE800176E000E186E000E196E070E1A6E0DA003
:100DF80006D0105017261150182212501922D890D8
:100E08000F320E320D32D8901036113612361A2E95
:100E1800EED7090E1A6E0DA006D0105017261150E5
:100E2800182212501922D8900F320E320D32D89053
:100E38001932183217321A2EEED717C001F018C01F
:100E480002F019C003F016C004F01BC005F083ECD3
:100E580008F001C00DF002C00EF003C00FF0120040
:100E68000D6E8C8065D00A0E016E0D50D8EC0BF01B
:100E78000C6E0C50300F48EC0BF07FEC0CF0040EAD
:100E880099EC0AF012000A0E056E640E016E0D5000
:100E9800D8EC0BF08CEC0BF00B6E0A0E016E0D50BB
:100EA800D8EC0BF00C6E0B50300F48EC0BF07FECCD
:100EB8000CF0040E99EC0AF00C50300F48EC0BF0D3
:100EC8007FEC0CF0040E99EC0AF01200640E056E2B
:100ED8000D508CEC0BF00A6E0A0E056E640E016E56
:100EE8000D50D8EC0BF08CEC0BF00B6E0A0E016E6B
:100EF8000D50D8EC0BF00C6E0A50300F48EC0BF08C
:100F08007FEC0CF0040E99EC0AF00B50300F48EC13
:100F18000BF07FEC0CF0040E99EC0AF00C50300F3B
:100F280048EC0BF07FEC0CF0040E99EC0AF0120080
:100F38000950010AD8B497D7030AD8B4A4D7010A2C
:100F4800D8A41200C3D71EC022F0236A246A1D3415
:100F5800223601E323802250296E2950D8A407D0D5
:100F6800000E1C6E000E1D6E000E1E6E120021C0BB
:100F780022F0236A246A2034223601E32380225097
:100F88002A6E2A50D8A407D0000E1C6E000E1D6EC3
:100F9800000E1E6E1200000E266E000E276E000E4A
:100FA800286E2A50890F295E1EC02AF021502A1A5D
:100FB800800E2A161D8EFF0E1C16FF0E1D16000E23
:100FC8001E16208EFF0E1F16FF0E2016000E21166D
:100FD800180E256ED8902636273628361F501C5CEA
:100FE80020501D5821501E58D8A007D01F501C5EF5
:100FF80020501D5A21501E5A2680D8901C361D3666
:101008001E36252EE7D726C001F027C002F028C0DB
:1010180003F029C004F02AC005F083EC08F001C0F1
:101028001CF002C01DF003C01EF0120039C03BF0D6
:101038003C6A3D6A38343B3601E33C803B50456EA0
:101048004550D8A409D0000E376E000E386E000E39
:10105800396E000E3A6E1200170E3B6E37C03CF028
:1010680038C03DF039C03EF03B283F6E04D0D890E0
:101078003E323D323C323F2EFAD73C50406E388EDD
:10108800FF0E3716FF0E3816000E39163750416E10
:101098003850426E3950436E446A8E0E455E45AEF6
:1010A8000DD04550800A8F0FD8A0CDD7D8904432A4
:1010B800433242324132453EF9D70DD0170E4564CE
:1010C80007D0C1D7D8904136423643364436450614
:1010D8004550D8A4F7D74050D8B408D0441E431E72
:1010E800421E416C000E42224322442241C037F086
:1010F80042C038F043C039F044C03AF012000450FE
:10110800D8B405D0015002100310D8A40CD0000E9A
:10111800016E000E026E000E036E1200042AD890B3
:10112800033202320132000E0114066E000E021460
:10113800076EFE0E0314086E065007100810D8B488
:101148000CD0ECD7042A010E0126000E0222000E54
:101158000322D890033202320132000E0114066EC7
:10116800000E0214076EFF0E0314086E06500710D7
:101178000810D8B406D0E6D70406D890013602364F
:10118800033602BE03D0020E0460F6D704A0029E06
:10119800D8900432045003120550D8A4038E01C01D
:1011A80001F002C002F003C003F012008C90040E9C
:1011B8004C18D8A404D08C500F0B300901D03F0E26
:1011C8008C6E7FEC0CF0010E99EC0AF0040E4C18B2
:1011D800D8A404D08C500F0B300901D03F0E8C6E70
:1011E8007FEC0CF0030E99EC0AF0040E4C18D8A40E
:1011F80004D08C500F0B300901D03F0E8C6E7FEC61
:101208000CF0040E99EC0AF0040E4C18D8A411D076
:101218008C500F0B20098C6E7FEC0CF0040E99ECAF
:101228000AF02F0E48EC0BF07FEC0CF0040E99EC52
:101238000AF075EC0CF00F0E48EC0BF07FEC0CF09C
:10124800040E99EC0AF01200000E0B6E8851081873
:10125800D8A404D00A508519D8B41BD0800E6AECE3
:101268000CF008D006500B24D96EDA6ADF505FEC18
:101278000CF00B2A06500B24D96EDA6ADF50D8B46A
:1012880005D0F0D7200E5FEC0CF00B2A0F0E0B6484
:10129800F9D7000E0B6E000187510918D8B4120057
:1012A800C00E6AEC0CF008D007500B24D96EDA6A2D
:1012B800DF505FEC0CF00B2A07500B24D96EDA6A6A
:1012C800DF50D8B405D0F0D7200E5FEC0CF00B2A15
:1012D8000F0E0B64F9D71200000E086E32D00650BC
:1012E8000824076E07C0F6FF080EF76E0800F550D1
:1012F8000A0AD8A404D0C00E6AEC0CF0082A08C068
:1013080007F0010E07261F0E0716D8A403D075ECA8
:101318000CF00BD008C007F0010E07260F0E0716B9
:10132800D8A403D0C00E6AEC0CF006500824076E4F
:1013380007C0F6FF080EF76E0800F5505FEC0CF0DA
:10134800082A06500824076E07C0F6FF080EF76E35
:101358000800F5500009D8B41200C1D7700ED36E3A
:10136800030E056E980EE82EFED7052EFCD7200E2C
:10137800AC6E800EAB6E000EB86E0C0EAF6E0D0E1E
:10138800C16EF80E966E010E8D6E928492869494BC
:101398008B9493908A90050EC26EC90EC06E040E8F
:1013A800D56E0B0ED76EDC0ED66EF294F28AF28EE4
:1013B800D58E000E956E000E8C6E040E53EC0CF05C
:1013C800DAEC08F00B0E066E260E056E5E0EE82EA1
:1013D800FED7052EFCD7062EFAD71200D0B606D0B7
:1013E800D0861C0E066E70EC09F0030075EC0CF04C
:1013F800690E066E70EC09F0290E066E70EC09F0A5
:101408000B0E0F6E260E0E6E5E0EE82EFED70E2EFB
:10141800FCD70F2EFAD775EC0CF00B0E066E70EC9D
:1014280009F0710E066E70EC09F0020E096E000EDE
:1014380086EC0CF034EC07F0560E066E70EC09F0F2
:101448000B0E0F6E260E0E6E5E0EE82EFED70E2EBB
:10145800FCD70F2EFAD71200160E0001886104D0AF
:101468008480848484821200190E886104D0849058
:101478008484849212001C0E886104D08480848441
:10148800849212001F0E886104D084808494849210
:101498001200220E886104D0848084948482120011
:1014A800250E886104D08490849484821200280ECA
:1014B800886104D084908484848212008490849407
:1014C80084921200B2EC09F0F2EC09F0D18000012C
:1014D8008269836984698651D8B4FDD7EDEC0BF035
:1014E800040020EC0BF092EC0CF0600E466E710ECE
:1014F800476E3CEC04F030EC0AF0600E066E710E9C
:10150800076E82C008F083C009F084C00AF028EC96
:1015180009F044EC0CF0000E0001866F88C082F0E0
:1015280087C083F085C084F0D6D7026E23D0270EFB
:10153800016EF50EE82EFED7012EFCD700F0120042
:10154800030E016E980EE82EFED7012EFCD7B60EBC
:1015580000D000D0E82EFCD700D000D000D0120078
:10156800420EE82EFED700D012001A0EE82EFED743
:1015780000D012000250010AD8B4D9D7030AD8B44F
:10158800DFD7010AD8B4ECD7070AD8A41200EDD7E0
:10159800000E036E000E026E80A803D0016A012AB5
:1015A80001D0016A01A0F8D7140EE82EFED780A852
:1015B80003D0016A012A01D0016A01A003D0D880B2
:1015C800033603D003500324036E80A803D0016AB6
:1015D800012A01D0016A01B0F8D7022A070E026475
:1015E800DBD703501200000E066E000E056E035086
:1015F8000410D8B41CD0010E076E04D0D89003365E
:101608000436072A04AEFAD7D890053606360350B2
:10161800015C04500258D8A005D00350015E045064
:10162800025A0580D89004320332072EEDD705C040
:1016380001F006C002F01200000E286E1C0E0D6E9E
:10164800360E0E6E88C00FF0106A14EC06F008D043
:1016580028501C0FD96EDA6ADF508CEC0CF0282A5F
:1016680028501C0FD96EDA6ADF50D8A4F1D7030EC0
:101678001B6E080E1A6E770EE82EFED71A2EFCD7B0
:101688001B2EFAD700F01200046E040E4C18D8A4D2
:1016980017D004C003F0F00E03168C500F0B031084
:1016A8008C6E7FEC0CF0010E99EC0AF004C003F08C
:1016B800033AF00E03168C500F0B03108C6E1200B9
:1016C800080E4C18D8A4120004C08CFF12000A504F
:1016D8000B10D8B418D0010E0C6E04D0D8900A366E
:1016E8000B360C2A0BAEFAD70A50085C0B50095877
:1016F800D8A004D00A50085E0B50095AD8900B3273
:101708000A320C2EF1D708C008F009C009F01200FF
:10171800066E000E086E0550D8B415D0010E076E7F
:1017280003D0D8900536072A05AEFBD7D8900836DF
:101738000550065CD8A003D00550065E0880D890F6
:101748000532072EF3D70850120080A803D0016A8B
:10175800012A01D0016A01B0F8D780A803D0016A34
:10176800012A01D0016A01A0F8D780A803D0016A34
:10177800012A01D0016A01A01200F7D7300EF66ED7
:10178800190EF76E000EF86E0900F5CF4CF0000147
:10179800886B876B866B856B4B6A4D904D92000EFC
:1017A800F86E000166EF0AF0026E080E036E000E76
:1017B800046ED89002340434046ED8900236015076
:1017C800045CD8A002D00150045E032EF2D7045066
:1017D800120024EC0CF0A9EC0BF0CCEC0AF00001A0
:1017E800876FCCEC0AF0CCEC0AF00001886FCCECE7
:1017F8000AF0CCEC0AF012000C6E0C50016E026A72
:10180800036A8E0E046E000E056E83EC08F001C0AC
:1018180009F002C00AF003C00BF012000600F2A49F
:101828000DD00B0ED76EDC0ED66EF29482B402D0B9
:10183800828401D08294010E0001866F4D921100BE
:10184800929889982F0E016EC00EE82EFED7012EB1
:10185800FCD789880D0EE82EFED700F0928889986B
:101868001200026E02C0A9FF01C0A8FFA684550E8F
:10187800A76EAA0EA76EA682A6B2FED7A6941200DD
:10188800C280C282C2B2FED7000EC35C020EC45828
:10189800D8A002D0818001D08190C2901200016E40
:1018A800040E0118D8B404D0080E0118D8A41200E8
:1018B80001C04CF01200056E8C80055048EC0BF00E
:1018C8007FEC0CF0040E99EC0AF01200056E8C9077
:1018D800055048EC0BF07FEC0CF0040E99EC0AF084
:1018E80012008C90010E48EC0BF07FEC0CF0020E0D
:1018F80099EC0AF012008C821A0EE82EFED700D05E
:101908008C921200016E01C0A9FFA680A850120097
:10191800016EACA2FED701C0ADFF120088C001F075
:09192800000E35EC0CF012000871
:020000040020DA
:08000000FFFFFFFFFFFFFFFF00
:020000040030CA
:0E00000000091F12FF8385FF0FC00FE00F40A5
:00000001FF
