:0400000007EF00F016
:0A000800518299ED07F03EEF07F07A
:100800000001000A006400E80310274269656E7663
:10081000656E69646F20612053656E736F7200545A
:100820003A2025692052610A483A2025692025632B
:1008300000543A20256920430A483A20256920259A
:100840006300543A20256920460A483A2025692049
:10085000256300543A202569204B0A483A2025692F
:100860002025630044696F73206573206275656E8F
:100870006F00543A20256920430A00286E756C6C7D
:0B0880002900486F6C61002573000028
:10088C003F0E4A6ED4D0250E4D18D8B407D03D502B
:10089C00D96EDA6A4DC0DFFF3D2AC9D0000E466E14
:1008AC0047D04A50D96EDA6ADECF48F0DDCF49F036
:1008BC00020E4A2648504910D8A41ED07B0E486E12
:1008CC004850D8A4080E496E17D048C0F6FF49C04E
:1008DC00F7FFF86A3D50D96EDA6A070EF76403D059
:1008EC000800F55005D0F6CFE9FFF7CFEAFFEF503F
:1008FC00DF6E484A492A3D2A48C0F6FF49C0F7FF37
:10090C00F86A070EF76403D00800F55005D0F6CF4F
:10091C00E9FFF7CFEAFFEF500009D8B488D0D5D75C
:10092C004A50D96EDA6ADF504D6E020E4A26AFD7A6
:10093C003E2A3E04456E45C0F6FF080EF76E0800D1
:10094C00F5CF4DF04D50000AD8B47ED0630AD8B420
:10095C00E7D7070AD8B407D00D0AD8B404D01A0ABE
:10096C00D8B49FD794D74A50D96EDA6ADECF4BF001
:10097C00DDCF4CF0020E4A264CAE06D0030E4612CA
:10098C004B6C4C1ED8B04C2A010E4D6E4D50020DC6
:10099C00F350010F456E45C0F6FF080EF76E0900C7
:1009AC00F5504B5C0900F5504C58D8A005D04D2A99
:1009BC00050E4D18D8A4EAD746C045F0030E4516CF
:1009CC00D8B406D03D50D96EDA6A2D0EDF6E3D2AB2
:1009DC004DC047F028D04750020DF350010F456E23
:1009EC0045C0F6FF080EF76E0900F5CF33F00A008C
:1009FC00F5CF34F04BC031F04CC032F091EC06F036
:100A0C0031C038F032C039F0000E3B6E0A0E3A6E2F
:100A1C00FEEC06F03850300F4D6E3D50D96EDA6A50
:100A2C004DC0DFFF3D2A47064728D8A4D4D73E2A1D
:100A3C003E04456E45C0F6FF080EF76E0800F5CF74
:100A4C004DF04D50D8A41FD73D50D96EDA6ADF6AED
:100A5C001200250E3D6E720E3E6E000E406E000EA4
:100A6C003F6E46EC04F0050E3D6E870E3E6E820E18
:100A7C003F6E3F50D8A4080E406E46EC04F080A2A6
:100A8C0080B413D0050E3D6E310E3E6E000E406EDE
:100A9C00000E3F6E000E426E000E416E000E446E54
:100AAC00250E436E46EC04F0120080A280A413D0F5
:100ABC00050E3D6E530E3E6E010E406E110E3F6ED6
:100ACC00000E426E000E416E000E446E250E436EFB
:100ADC0046EC04F0120080B280B413D0050E3D6ECB
:100AEC001F0E3E6E010E406EEB0E3F6E000E426E00
:100AFC00000E416E000E446E250E436E46EC04F063
:100B0C00120080A2120080A41200050E3D6E420E4F
:100B1C003E6E000E406E200E3F6E000E426E000EBA
:100B2C00416E000E446E250E436E46EC04F012002E
:100B3C008C90040E5018D8A404D08C500F0B300994
:100B4C0001D03F0E8C6ED6EC07F0010E2CEC06F0AB
:100B5C00040E5018D8A404D08C500F0B300901D0BF
:100B6C003F0E8C6ED6EC07F0030E2CEC06F0040E48
:100B7C005018D8A404D08C500F0B300901D03F0E64
:100B8C008C6ED6EC07F0040E2CEC06F0040E50180C
:100B9C00D8A411D08C500F0B20098C6ED6EC07F01A
:100BAC00040E2CEC06F02F0EBAEC06F0D6EC07F087
:100BBC00040E2CEC06F0CCEC07F00F0EBAEC06F0A1
:100BCC00D6EC07F0040E2CEC06F01200700ED36E6F
:100BDC00030E356E980EE82EFED7352EFCD78B9271
:100BEC00200EAC6E800EAB6E000EB86E0C0EAF6E9F
:100BFC000E0EC16EF80E966E010E8D6E9268949468
:100C0C008B9493908A90010EC26EC80EC06E040E27
:100C1C00D56E4EC0D6FF4FC0D7FFF294F28AF28E3B
:100C2C00D58E000E956E000E8C6E040EAAEC07F09D
:100C3C009EEC05F00B0E366E260E356E5E0EE82E13
:100C4C00FED7352EFCD7362EFAD71200326E23D0B3
:100C5C00270E316EF50EE82EFED7312EFCD700F0A4
:100C6C001200030E316E980EE82EFED7312EFCD7F3
:100C7C00B60E00D000D0E82EFCD700D000D000D0AB
:100C8C001200420EE82EFED700D012001A0EE82EEB
:100C9C00FED700D012003250010AD8B4D9D7030ABB
:100CAC00D8B4DFD7010AD8B4ECD7070AD8A41200FD
:100CBC00EDD7000E386E22D038C037F0010E372633
:100CCC001F0E3716D8A403D0CCEC07F00BD038C0CD
:100CDC0037F0010E37260F0E3716D8A403D0C00EEE
:100CEC00C1EC07F036503824376E37C0F6FF080ECB
:100CFC00F76E0800F550B6EC07F0382A3650382459
:100D0C00376E37C0F6FF080EF76E0800F550000975
:100D1C00D8B41200D1D7000E366E000E356E33509B
:100D2C003410D8B41CD0010E376E04D0D8903336A2
:100D3C003436372A34AEFAD7D89035363636335067
:100D4C00315C34503258D8A005D03350315E345019
:100D5C00325A3580D89034323332372EEDD735C0F5
:100D6C0031F036C032F01200346E040E5018D8A494
:100D7C0017D034C033F0F00E33168C500F0B3310E9
:100D8C008C6ED6EC07F0010E2CEC06F034C033F070
:100D9C00333AF00E33168C500F0B33108C6E12004E
:100DAC00080E5018D8A4120034C08CFF1200000E8C
:100DBC00376ECCEC07F014D03750050FD96EDA6AC9
:100DCC000A0EDE18D8A404D0C00EC1EC07F0372AE6
:100DDC003750050FD96EDA6ADF50B6EC07F0372AB8
:100DEC003750050FD96EDA6ADF50D8B41200E4D749
:100DFC003A503B10D8B418D0010E3C6E04D0D890A9
:100E0C003A363B363C2A3BAEFAD73A50385C3B502C
:100E1C003958D8A004D03A50385E3B50395AD89043
:100E2C003B323A323C2EF1D738C038F039C039F069
:100E3C001200000E346E08D03450250FD96EDA6AC9
:100E4C00DF50DDEC07F0342A3450250FD96EDA6A06
:100E5C00DF50D8A4F1D7030E336E080E326E770E26
:100E6C00E82EFED7322EFCD7332EFAD700F0120024
:100E7C00CE0EF66E0F0EF76E000EF86E0900F5CF63
:100E8C004EF00900F5CF4FF00900F5CF50F000EE11
:100E9C0001F0300EEE6AE806FDE151905192000E21
:100EAC00F86E000172EF07F0CCEC07F00B0E366E0B
:100EBC005FEC06F0640E366E5FEC06F00B0E3A6ECD
:100ECC00260E396E5E0EE82EFED7392EFCD73A2E42
:100EDC00FAD7CCEC07F01200ECEC05F05AEC07F06A
:100EEC000150D8B4FDD788EC07F0E9EC07F02FECF3
:100EFC0005F01FEC07F0E3EC07F0DDEC06F0000E5C
:100F0C00016EEED7C280C282C2B2FED7CCEC07F023
:100F1C00000EC35C020EC458D8A002D0818001D050
:100F2C008190C29012000600F2A40CD04EC0D6FFE5
:100F3C004FC0D7FFF29482B402D0828401D0829445
:100F4C00010E016E51921100316E040E3118D8B49D
:100F5C0004D0080E3118D8A4120031C050F0120081
:100F6C00356E8C803550BAEC06F0D6EC07F0040EDA
:100F7C002CEC06F01200356E8C903550BAEC06F065
:100F8C00D6EC07F0040E2CEC06F012008C90010E3F
:100F9C00BAEC06F0D6EC07F0020E2CEC06F01200C0
:100FAC008C821A0EE82EFED700D08C921200316E75
:100FBC00ACA2FED731C0ADFF120084808484848241
:050FCC001200DC0B081F
:020FD20012000B
:020000040020DA
:08000000FFFFFFFFFFFFFFFF00
:020000040030CA
:0E00000000091F1EFF8385FF0FC00FE00F4099
:00000001FF
