:0400000007EF00F016
:0A0008005B8246ED0BF03DEF0AF0BD
:100800000001000A006400E80310274269656E7663
:10081000656E69646F20612053656E736F7200545A
:100820003A2025692052610A483A2025692025632B
:1008300000543A20256920430A483A20256920259A
:100840006300543A20256920460A483A2025692049
:10085000256300543A202569204B0A483A2025692F
:100860002025630044696F73206573206275656E8F
:100870006F004661696C656420444854313100540E
:100880003A20256920430A00286E756C6C290048BF
:100890006F6C6100257300004C0E0D6E7F0E0E6EA6
:1008A0004BC00FF0106A36EC05F0600E0D6E940E22
:1008B0000E6E8F0E0F6E0F50D8A4080E106E36EC11
:1008C00005F080A280B411D0600E0D6E310E0E6E58
:1008D0004BC00FF0106A4AC011F0126A000E146E7D
:1008E000250E136E36EC05F0120080A280A42FD0E6
:1008F000930E2E6E880E2F6E430E306E4B5012EC00
:100900000BF009C02BF00AC02CF00BC02DF01FEC2F
:1009100006F02BC037F02CC038F02DC039F0E0ECD9
:1009200007F037C046F038C047F0600E0D6E530E2A
:100930000E6E46C00FF047C010F04AC011F0126AA8
:10094000000E146E250E136E36EC05F0120080B208
:1009500080B43DD0D60E2E6EF50E2F6E430E306E47
:10096000660E106EE60E116E3F0E126E4B5012ECBC
:100970000BF009C00DF00AC00EF00BC00FF0F3EC45
:1009800006F00DC02BF00EC02CF00FC02DF01FECA8
:1009900006F02BC037F02CC038F02DC039F0E0EC59
:1009A00007F037C046F038C047F0600E0D6E1F0EDE
:1009B0000E6E46C00FF047C010F04AC011F0126A28
:1009C000000E146E250E136E36EC05F0120080A298
:1009D000120080A41200000E2E6E000E2F6E420E2A
:1009E000306E000E1F6EA00E206E400E216E000EA7
:1009F000106E100E116E410E126E4B5012EC0BF079
:100A000009C00DF00AC00EF00BC00FF0F3EC06F0B9
:100A10000DC01CF00EC01DF00FC01EF06DEC07F0F5
:100A20001CC02BF01DC02CF01EC02DF01FEC06F0DA
:100A30002BC037F02CC038F02DC039F0E0EC07F0B7
:100A400037C046F038C047F0600E0D6E420E0E6E95
:100A500046C00FF047C010F04AC011F0126A000EF5
:100A6000146E250E136E36EC05F012000F0E1A6E82
:100A7000D4D0250E1D18D8B407D00D50D96EDA6A1F
:100A80001DC0DFFF0D2AC9D0000E166E47D01A50C8
:100A9000D96EDA6ADECF18F0DDCF19F0020E1A2611
:100AA00018501910D8A41ED0880E186E1850D8A44B
:100AB000080E196E17D018C0F6FF19C0F7FFF86AB4
:100AC0000D50D96EDA6A070EF76403D00800F550AE
:100AD00005D0F6CFE9FFF7CFEAFFEF50DF6E184AF7
:100AE000192A0D2A18C0F6FF19C0F7FFF86A070E79
:100AF000F76403D00800F55005D0F6CFE9FFF7CF33
:100B0000EAFFEF500009D8B488D0D5D71A50D96E73
:100B1000DA6ADF501D6E020E1A26AFD70E2A0E04B7
:100B2000156E15C0F6FF080EF76E0800F5CF1DF024
:100B30001D50000AD8B47ED0630AD8B4E7D7070A9C
:100B4000D8B407D00D0AD8B404D01A0AD8B49FD7A5
:100B500094D71A50D96EDA6ADECF1BF0DDCF1CF0C5
:100B6000020E1A261CAE06D0030E16121B6C1C1E9B
:100B7000D8B01C2A010E1D6E1D50020DF350010F3E
:100B8000156E15C0F6FF080EF76E0900F5501B5CD8
:100B90000900F5501C58D8A005D01D2A050E1D18B7
:100BA000D8A4EAD716C015F0030E1516D8B406D08F
:100BB0000D50D96EDA6A2D0EDF6E0D2A1DC017F0AA
:100BC00028D01750020DF350010F156E15C0F6FF17
:100BD000080EF76E0900F5CF03F00A00F5CF04F018
:100BE0001BC001F01CC002F0F1EC09F001C008F0DC
:100BF00002C009F0000E0B6E0A0E0A6E80EC0AF0BD
:100C00000850300F1D6E0D50D96EDA6A1DC0DFFF1F
:100C10000D2A17061728D8A4D4D70E2A0E04156E4D
:100C200015C0F6FF080EF76E0800F5CF1DF01D5039
:100C3000D8A41FD70D50D96EDA6ADF6A12002DC012
:100C400031F0326A336A2C34313601E3328031506C
:100C5000366E30C031F0326A336A2F34313601E3F8
:100C600032803150356E3650D8B40AD03550365CAB
:100C7000D8B00DD03650355C316E180E316407D0C7
:100C80002EC02BF02FC02CF030C02DF012003550AC
:100C9000D8B40AD03650355CD8B00DD03550365C5B
:100CA000316E180E316407D02BC02BF02CC02CF005
:100CB0002DC02DF01200060E346E2DBE348E30BEC7
:100CC000348C2C8EFF0E2B16FF0E2C16000E2D16BC
:100CD0002F8EFF0E2E16FF0E2F16000E30163550DB
:100CE000365CD8B01BD0D8902E362F36303635062D
:100CF00036503518D8B40DD0340634C031F0070E54
:100D00003116D8B406D0EFD7D8902D322C322B32F2
:100D1000362A35503618D8B41FD0F6D73650355C41
:100D2000D8B01AD0D8902B362C362D363606365001
:100D30003518D8B40DD0340634C031F0070E311652
:100D4000D8B406D0EFD7D89030322F322E32352A91
:100D500035503618D8A4F7D734AE0CD0FF0E2B1A66
:100D6000FF0E2C1AFF0E2D1A010E2B26000E2C2220
:100D7000000E2D2234AC0CD0FF0E2E1AFF0E2F1AAF
:100D8000FF0E301A010E2E26000E2F22000E3022EA
:100D9000000E346E2B502E262C502F222D50302238
:100DA00030AE0ED0FF0E2E1AFF0E2F1AFF0E301A85
:100DB000010E2E26000E2F22000E3022010E346E60
:100DC0002EC001F02FC002F030C003F036C004F096
:100DD00034C005F049EC08F001C02BF002C02CF043
:100DE00003C02DF012000FC013F0146A156A0E3400
:100DF000133601E314801350166E1650D8A407D092
:100E0000000E0D6E000E0E6E000E0F6E120012C060
:100E100013F0146A156A1134133601E31480135069
:100E20001B6E1B50D8A407D0000E0D6E000E0E6E68
:100E3000000E0F6E12001B507B0F16260FC01BF00A
:100E400012501B1A800E1B160E8E118EFF0E1016DE
:100E5000FF0E1116000E1216000E176E000E186E01
:100E6000000E196E070E1A6E0DA006D01050172630
:100E70001150182212501922D8900F320E320D3212
:100E8000D8901036113612361A2EEED7090E1A6E79
:100E90000DA006D0105017261150182212501922FA
:100EA000D8900F320E320D32D890193218321732D4
:100EB0001A2EEED717C001F018C002F019C003F0C7
:100EC00016C004F01BC005F049EC08F001C00DF09D
:100ED00002C00EF003C00FF012001EC022F0236A01
:100EE000246A1D34223601E323802250296E2950C2
:100EF000D8A407D0000E1C6E000E1D6E000E1E6ED4
:100F0000120021C022F0236A246A2034223601E331
:100F1000238022502A6E2A50D8A407D0000E1C6EBF
:100F2000000E1D6E000E1E6E1200000E266E000ECC
:100F3000276E000E286E2A50890F295E1EC02AF0E7
:100F400021502A1A800E2A161D8EFF0E1C16FF0E27
:100F50001D16000E1E16208EFF0E1F16FF0E2016E9
:100F6000000E2116180E256ED89026362736283604
:100F70001F501C5C20501D5821501E58D8A007D06F
:100F80001F501C5E20501D5A21501E5A2680D8909A
:100F90001C361D361E36252EE7D726C001F027C089
:100FA00002F028C003F029C004F02AC005F049EC83
:100FB00008F001C01CF002C01DF003C01EF01200BA
:100FC00039C03BF03C6A3D6A38343B3601E33C8033
:100FD0003B50456E4550D8A409D0000E376E000E28
:100FE000386E000E396E000E3A6E1200170E3B6E10
:100FF00037C03CF038C03DF039C03EF03B283F6E72
:1010000004D0D8903E323D323C323F2EFAD73C508D
:10101000406E388EFF0E3716FF0E3816000E39164A
:101020003750416E3850426E3950436E446A8E0ECE
:10103000455E45AE0DD04550800A8F0FD8A0CDD764
:10104000D8904432433242324132453EF9D70DD036
:10105000170E456407D0C1D7D89041364236433683
:10106000443645064550D8A4F7D74050D8B408D0E8
:10107000441E431E421E416C000E42224322442263
:1010800041C037F042C038F043C039F044C03AF0B4
:1010900012000450D8B405D0015002100310D8A497
:1010A0000CD0000E016E000E026E000E036E1200D8
:1010B000042AD890033202320132000E0114066E67
:1010C000000E0214076EFE0E0314086E0650071081
:1010D0000810D8B40CD0ECD7042A010E0126000E5B
:1010E0000222000E0322D890033202320132000E97
:1010F0000114066E000E0214076EFF0E0314086E34
:10110000065007100810D8B406D0E6D70406D890C9
:1011100001360236033602BE03D0020E0460F6D753
:1011200004A0029ED8900432045003120550D8A4A3
:10113000038E01C001F002C002F003C003F01200F0
:101140008C90040E5A18D8A404D08C500F0B300980
:1011500001D03F0E8C6E83EC0BF0010E63EC09F0B6
:10116000040E5A18D8A404D08C500F0B300901D0AB
:101170003F0E8C6E83EC0BF0030E63EC09F0040E53
:101180005A18D8A404D08C500F0B300901D03F0E50
:101190008C6E83EC0BF0040E63EC09F0040E5A180D
:1011A000D8A411D08C500F0B20098C6E83EC0BF05F
:1011B000040E63EC09F02F0E1AEC0AF083EC0BF02E
:1011C000040E63EC09F079EC0BF00F0E1AEC0AF048
:1011D00083EC0BF0040E63EC09F01200700ED36E7A
:1011E000030E056E980EE82EFED7052EFCD78B92C7
:1011F000200EAC6E800EAB6E000EB86E0C0EAF6E95
:101200000E0EC16EF80E966E010E8D6E926894945D
:101210008B9493908A90010EC26EC80EC06E040E1D
:10122000D56E58C0D6FF59C0D7FFF294F28AF28E1D
:10123000D58E000E956E000E8C6E040E57EC0BF0E2
:10124000A0EC08F00B0E066E260E056E5E0EE82E64
:10125000FED7052EFCD7062EFAD71200160E4B60CD
:1012600004D08480848484821200190E4B6004D0E0
:1012700084908484849212001C0E4B6004D084807D
:101280008484849212001F0E4B6004D08480849466
:1012900084921200220E4B6004D084808494848255
:1012A0001200250E4B6004D0849084948482120036
:1012B000280E4B6004D08490848484821200849031
:1012C000849484921200026E23D0270E016EF50ED4
:1012D000E82EFED7012EFCD700F01200030E016E9F
:1012E000980EE82EFED7012EFCD7B60E00D000D007
:1012F000E82EFCD700D000D000D01200420EE82E1D
:10130000FED700D012001A0EE82EFED700D0120031
:101310000250010AD8B4D9D7030AD8B4DFD7010ADA
:10132000D8B4ECD7070AD8A41200EDD7000E086E87
:1013300022D008C007F0010E07261F0E0716D8A4FA
:1013400003D079EC0BF00BD008C007F0010E072694
:101350000F0E0716D8A403D0C00E6EEC0BF006508B
:101360000824076E07C0F6FF080EF76E0800F55058
:1013700063EC0BF0082A06500824076E07C0F6FF3E
:10138000080EF76E0800F5500009D8B41200D1D746
:10139000000E066E94922F0E056EC00EE82EFED73C
:1013A000052EFCD7948282B2FED71A0EE82EFED705
:1013B00000D082A2062A350EE82EFED700F082B2B7
:1013C000062A82B2FED724EC0BF04A6E24EC0BF016
:1013D00024EC0BF04B6E24EC0BF024EC0BF0496E7C
:1013E0001200000E066E000E056E03500410D8B4F5
:1013F0001CD0010E076E04D0D89003360436072A9D
:1014000004AEFAD7D890053606360350015C045076
:101410000258D8A005D00350015E0450025A05803E
:10142000D89004320332072EEDD705C001F006C074
:1014300002F01200046E040E5A18D8A417D004C08B
:1014400003F0F00E03168C500F0B03108C6E83EC20
:101450000BF0010E63EC09F004C003F0033AF00E48
:1014600003168C500F0B03108C6E1200080E5A18C6
:10147000D8A4120004C08CFF1200260EF66E170EC0
:10148000F76E000EF86E0900F5CF58F00900F5CFA1
:1014900059F00900F5CF5AF000EE60F0200EEE6A28
:1014A000E806FDE100EE48F0100EEE6AE806FDE108
:1014B0005B905B92000EF86E0001E0EF0AF0000E08
:1014C000076E79EC0BF014D00750600FD96EDA6A12
:1014D0000A0EDE18D8A404D0C00E6EEC0BF0072A5A
:1014E0000750600FD96EDA6ADF5063EC0BF0072A01
:1014F0000750600FD96EDA6ADF50D8B41200E4D713
:101500000A500B10D8B418D0010E0C6E04D0D8902D
:101510000A360B360C2A0BAEFAD70A50085C0B5071
:101520000958D8A004D00A50085E0B50095AD89028
:101530000B320A320C2EF1D708C008F009C009F0AE
:101540001200D0B606D0D086720E066E96EC09F068
:10155000030079EC0BF00B0E066E96EC09F0640EAE
:10156000066E96EC09F00B0E0A6E260E096E5E0EE4
:10157000E82EFED7092EFCD70A2EFAD779EC0BF00D
:101580001200000E046E08D004504C0FD96EDA6AB7
:10159000DF508AEC0BF0042A04504C0FD96EDA6A43
:1015A000DF50D8A4F1D7030E036E080E026E770E3B
:1015B000E82EFED7022EFCD7032EFAD700F0120039
:1015C000EEEC08F0A1EC0AF0D1804850D8B4FDD779
:1015D00090EC0BF0040035EC0BF095EC0BF04CECC0
:1015E00004F0C1EC0AF02EEC09F05FEC0AF0000EFA
:1015F000486EEBD7000E016E82A2FED7080EE82ED1
:10160000FED700D082A202D0000E016E0E0EE82E90
:10161000FED700D082A204D0010E016E82B2FED7A6
:10162000015012000C6E0C50016E026A036A8E0E9D
:10163000046E000E056E49EC08F001C009F002C00E
:101640000AF003C00BF01200000E036E080E046EC9
:10165000FAEC0AF0026E035003240210036E040633
:101660000450D8A4F5D703501200C280C282C2B27F
:10167000FED779EC0BF0000EC35C020EC458D8A064
:1016800002D0818001D08190C29012000600F2A4A5
:101690000CD058C0D6FF59C0D7FFF29482B402D004
:1016A000828401D08294010E486E5B921100016E1B
:1016B000040E0118D8B404D0080E0118D8A41200E2
:1016C00001C05AF01200056E8C8005501AEC0AF029
:1016D00083EC0BF0040E63EC09F01200056E8C90A5
:1016E00005501AEC0AF083EC0BF0040E63EC09F0E1
:1016F00012008C90010E1AEC0AF083EC0BF0020E33
:1017000063EC09F012008C821A0EE82EFED700D08E
:101710008C921200016EACA2FED701C0ADFF120088
:09172000C8EC09F01200DC0B0812
:02172A001200AB
:020000040020DA
:08000000FFFFFFFFFFFFFFFF00
:020000040030CA
:0E00000000091F12FF8385FF0FC00FE00F40A5
:00000001FF
