:0400000007EF00F016
:0A0008004C82D5ED0AF0AEEF0AF0CD
:100800000001000A006400E80310274661696C6576
:1008100064204448543131000A476F6420697320D2
:10082000676F6F6400543A20256920430A00543AE8
:1008300020256920526100483A202569202563005F
:10084000543A202569204300543A20256920460067
:10085000543A202569204B0053656E736F72730004
:010860000097
:1008620080A280B418D046C00DF0400E0E6E86C035
:100872000FF0106AF9EC05F047C00DF0370E0E6E5E
:10088200000E106E000E0F6E000E126E250E116E0F
:10089200F9EC05F0120080A280A437D0930E2E6EE0
:1008A200880E2F6E430E306E00018651C3EC0AF0A3
:1008B20009C02BF00AC02CF00BC02DF025EC05F07E
:1008C2002BC037F02CC038F02DC039F08CEC07F07B
:1008D20037C048F038C049F046C00DF0500E0E6ED9
:1008E20048C00FF049C010F0F9EC05F047C00DF018
:1008F200370E0E6E000E106E000E0F6E000E126E90
:10090200250E116EF9EC05F0120080B280B445D0CC
:10091200D60E2E6EF50E2F6E430E306E660E106ED4
:10092200E60E116E3F0E126E00018651C3EC0AF004
:1009320009C00DF00AC00EF00BC00FF09FEC06F0DC
:100942000DC02BF00EC02CF00FC02DF025EC05F0E1
:100952002BC037F02CC038F02DC039F08CEC07F0EA
:1009620037C048F038C049F046C00DF02E0E0E6E6A
:1009720048C00FF049C010F0F9EC05F047C00DF087
:10098200370E0E6E000E106E000E0F6E000E126EFF
:10099200250E116EF9EC05F0120080A2120080A45F
:1009A2001200000E2E6E000E2F6E420E306E000EE2
:1009B2001F6EA00E206E400E216E000E106E100EE5
:1009C200116E410E126E00018651C3EC0AF009C08D
:1009D2000DF00AC00EF00BC00FF09FEC06F00DC038
:1009E2001CF00EC01DF00FC01EF019EC07F01CC069
:1009F2002BF01DC02CF01EC02DF025EC05F02BC0F5
:100A020037F02CC038F02DC039F08CEC07F037C02D
:100A120048F038C049F046C00DF0480E0E6E48C08E
:100A22000FF049C010F0F9EC05F047C00DF0370E99
:100A32000E6E000E106E000E0F6E000E126E250E60
:100A4200116EF9EC05F012002DC031F0326A336AF2
:100A52002C34313601E332803150366E30C031F001
:100A6200326A336A2F34313601E332803150356EC7
:100A72003650D8B40AD03550365CD8B00DD0365086
:100A8200355C316E180E316407D02EC02BF02FC0AA
:100A92002CF030C02DF012003550D8B40AD03650A8
:100AA200355CD8B00DD03550365C316E180E3164DD
:100AB20007D02BC02BF02CC02CF02DC02DF0120033
:100AC200060E346E2DBE348E30BE348C2C8EFF0E4C
:100AD2002B16FF0E2C16000E2D162F8EFF0E2E1625
:100AE200FF0E2F16000E30163550365CD8B01BD0D4
:100AF200D8902E362F363036350636503518D8B4C3
:100B02000DD0340634C031F0070E3116D8B406D0F9
:100B1200EFD7D8902D322C322B32362A3550361858
:100B2200D8B41FD0F6D73650355CD8B01AD0D8908A
:100B32002B362C362D36360636503518D8B40DD015
:100B4200340634C031F0070E3116D8B406D0EFD7D0
:100B5200D89030322F322E32352A35503618D8A45A
:100B6200F7D734AE0CD0FF0E2B1AFF0E2C1AFF0E45
:100B72002D1A010E2B26000E2C22000E2D2234AC33
:100B82000CD0FF0E2E1AFF0E2F1AFF0E301A010E76
:100B92002E26000E2F22000E3022000E346E2B5015
:100BA2002E262C502F222D50302230AE0ED0FF0E8A
:100BB2002E1AFF0E2F1AFF0E301A010E2E26000ECD
:100BC2002F22000E3022010E346E2EC001F02FC0F3
:100BD20002F030C003F036C004F034C005F0F5EC8A
:100BE20007F001C02BF002C02CF003C02DF0120060
:100BF2000F0E166E91D0250E1918D8B407D00D50CD
:100C0200D96EDA6A19C0DFFF0D2A86D0000E146E83
:100C120008D01650D96EDA6ADF50196E020E162607
:100C2200EED70E2A0E04136E13C0F6FF080EF76EEF
:100C32000800F5CF19F01950000AD8B47AD0630A27
:100C4200D8B4E7D7070AD8B403D00D0AD8A4D7D7A7
:100C52001650D96EDA6ADECF17F0DDCF18F0020E29
:100C6200162618AE06D0030E1412176C181ED8B032
:100C7200182A010E196E1950020DF350010F136E4E
:100C820013C0F6FF080EF76E0900F550175C090055
:100C9200F5501858D8A005D0192A050E1918D8A44D
:100CA200EAD714C013F0030E1316D8B406D00D50B1
:100CB200D96EDA6A2D0EDF6E0D2A19C015F028D012
:100CC2001550020DF350010F136E13C0F6FF080EFC
:100CD200F76E0900F5CF03F00A00F5CF04F017C054
:100CE20001F018C002F0F9EC09F001C008F002C0EE
:100CF20009F0000E0B6E0A0E0A6E6DEC0AF0085037
:100D0200300F196E0D50D96EDA6A19C0DFFF0D2A45
:100D120015061528D8A4D4D70E2A0E04136E13C0B4
:100D2200F6FF080EF76E0800F5CF19F01950D8A497
:100D320062D70D50D96EDA6ADF6A12000FC013F063
:100D4200146A156A0E34133601E314801350166EBA
:100D52001650D8A407D0000E0D6E000E0E6E000EB7
:100D62000F6E120012C013F0146A156A1134133692
:100D720001E3148013501B6E1B50D8A407D0000E41
:100D82000D6E000E0E6E000E0F6E12001B507B0FCA
:100D920016260FC01BF012501B1A800E1B160E8E49
:100DA200118EFF0E1016FF0E1116000E1216000EF7
:100DB200176E000E186E000E196E070E1A6E0DA039
:100DC20006D0105017261150182212501922D8900E
:100DD2000F320E320D32D8901036113612361A2ECC
:100DE200EED7090E1A6E0DA006D01050172611501C
:100DF200182212501922D8900F320E320D32D8908A
:100E02001932183217321A2EEED717C001F018C055
:100E120002F019C003F016C004F01BC005F0F5EC97
:100E220007F001C00DF002C00EF003C00FF0120077
:100E32001EC022F0236A246A1D34223601E3238075
:100E42002250296E2950D8A407D0000E1C6E000E25
:100E52001D6E000E1E6E120021C022F0236A246A4B
:100E62002034223601E3238022502A6E2A50D8A44D
:100E720007D0000E1C6E000E1D6E000E1E6E1200BC
:100E8200000E266E000E276E000E286E2A50890F65
:100E9200295E1EC02AF021502A1A800E2A161D8EA3
:100EA200FF0E1C16FF0E1D16000E1E16208EFF0EC4
:100EB2001F16FF0E2016000E2116180E256ED89052
:100EC2002636273628361F501C5C20501D582150CC
:100ED2001E58D8A007D01F501C5E20501D5A21500A
:100EE2001E5A2680D8901C361D361E36252EE7D770
:100EF20026C001F027C002F028C003F029C004F088
:100F02002AC005F0F5EC07F001C01CF002C01DF08C
:100F120003C01EF0120039C03BF03C6A3D6A38340F
:100F22003B3601E33C803B50456E4550D8A409D086
:100F3200000E376E000E386E000E396E000E3A6EDD
:100F42001200170E3B6E37C03CF038C03DF039C07E
:100F52003EF03B283F6E04D0D8903E323D323C32C8
:100F62003F2EFAD73C50406E388EFF0E3716FF0EDA
:100F72003816000E39163750416E3850426E3950CD
:100F8200436E446A8E0E455E45AE0DD04550800AD2
:100F92008F0FD8A0CDD7D89044324332423241325B
:100FA200453EF9D70DD0170E456407D0C1D7D8906A
:100FB200413642364336443645064550D8A4F7D723
:100FC2004050D8B408D0441E431E421E416C000E4D
:100FD20042224322442241C037F042C038F043C08B
:100FE20039F044C03AF012000450D8B405D0015090
:100FF20002100310D8A40CD0000E016E000E026E77
:10100200000E036E1200042AD8900332023201321B
:10101200000E0114066E000E0214076EFE0E03147B
:10102200086E065007100810D8B40CD0ECD7042A6A
:10103200010E0126000E0222000E0322D890033276
:1010420002320132000E0114066E000E0214076E07
:10105200FF0E0314086E065007100810D8B406D00D
:10106200E6D70406D89001360236033602BE03D014
:10107200020E0460F6D704A0029ED89004320450F7
:1010820003120550D8A4038E01C001F002C002F081
:1010920003C003F012008C90040E4B18D8A404D0A5
:1010A2008C500F0B300901D03F0E8C6E22EC0BF0EE
:1010B200010E94EC09F0040E4B18D8A404D08C5005
:1010C2000F0B300901D03F0E8C6E22EC0BF0030E99
:1010D20094EC09F0040E4B18D8A404D08C500F0BDA
:1010E200300901D03F0E8C6E22EC0BF0040E94EC12
:1010F20009F0040E4B18D8A411D08C500F0B200904
:101102008C6E22EC0BF0040E94EC09F02F0E4AECDC
:101112000AF022EC0BF0040E94EC09F018EC0BF040
:101122000F0E4AEC0AF022EC0BF0040E94EC09F0DC
:101132001200000E086E32D006500824076E07C057
:10114200F6FF080EF76E0800F5500A0AD8A404D07C
:10115200C00E0DEC0BF0082A08C007F0010E07269E
:101162001F0E0716D8A403D018EC0BF00BD008C042
:1011720007F0010E07260F0E0716D8A403D0C00EE3
:101182000DEC0BF006500824076E07C0F6FF080EA0
:10119200F76E0800F55002EC0BF0082A06500824FE
:1011A200076E07C0F6FF080EF76E0800F55000093B
:1011B200D8B41200C1D7000E0A6E86510818D8B4EE
:1011C2001BD0800E0DEC0BF008D006500A24D96E0D
:1011D200DA6ADF5002EC0BF00A2A06500A24D96EB2
:1011E200DA6ADF50D8B405D0F0D7200E02EC0BF04B
:1011F2000A2A0F0E0A64F9D7000E0A6E0950D8B4F3
:101202001200C00E0DEC0BF008D007500A24D96E64
:10121200DA6ADF5002EC0BF00A2A07500A24D96E70
:10122200DA6ADF50D8B405D0F0D7200E02EC0BF00A
:101232000A2A0F0E0A64F9D71200700ED36E030E3B
:10124200056E980EE82EFED7052EFCD78B92200E47
:10125200AC6E800EAB6E000EB86E0C0EAF6E0E0E44
:10126200C16EF80E966E010E8D6E926894948B94F8
:1012720093908A90010EC26EC90EC06E040ED56E96
:101282000B0ED76EDC0ED66EF294F28AF28ED58EEB
:10129200000E956E000E8C6E040EF6EC0AF04CEC0D
:1012A20008F00B0E066E260E056E5E0EE82EFED7B9
:1012B200052EFCD7062EFAD71200160E0001866103
:1012C20004D08480848484821200190E866104D042
:1012D20084908484849212001C0E866104D08480DF
:1012E2008484849212001F0E866104D084808494C8
:1012F20084921200220E866104D0848084948482B7
:101302001200250E866104D0849084948482120097
:10131200280E866104D08490848484821200849092
:10132200849484921200026E23D0270E016EF50E71
:10133200E82EFED7012EFCD700F01200030E016E3C
:10134200980EE82EFED7012EFCD7B60E00D000D0A4
:10135200E82EFCD700D000D000D01200420EE82EBA
:10136200FED700D012001A0EE82EFED700D01200CF
:101372000250010AD8B4D9D7030AD8B4DFD7010A78
:10138200D8B4ECD7070AD8A41200EDD71EEC09F0A6
:101392008EEC0AF0D1800001826983698451D8B44D
:1013A200FDD7862B320E866502D0120E866F0400A0
:1013B20022EC0AF02FEC0BF0600E466E710E476EB7
:1013C20031EC04F05EEC09F0600E066E710E076EF1
:1013D20082C008F083C009F0DCEC08F0E7EC0AF008
:1013E200000E0001846F86C082F0000E836FD6D794
:1013F200000E066E000E056E03500410D8B41CD009
:10140200010E076E04D0D89003360436072A04AEC4
:10141200FAD7D890053606360350015C04500258BC
:10142200D8A005D00350015E0450025A0580D8901E
:1014320004320332072EEDD705C001F006C002F0D8
:101442001200000E286E1C0E0D6E250E0E6E86C04A
:101452000FF0106AF9EC05F008D028501C0FD96E75
:10146200DA6ADF5029EC0BF0282A28501C0FD96EBB
:10147200DA6ADF50D8A4F1D7030E1B6E080E1A6E7B
:10148200770EE82EFED71A2EFCD71B2EFAD700F0C5
:101492001200046E040E4B18D8A417D004C003F037
:1014A200F00E03168C500F0B03108C6E22EC0BF017
:1014B200010E94EC09F004C003F0033AF00E031697
:1014C2008C500F0B03108C6E1200080E4B18D8A410
:1014D200120004C08CFF12000A500B10D8B418D0AE
:1014E200010E0C6E04D0D8900A360B360C2A0BAEC5
:1014F200FAD70A50085C0B500958D8A004D00A50F9
:10150200085E0B50095AD8900B320A320C2EF1D7D2
:1015120008C008F009C009F01200D0B606D0D08683
:101522000B0E066E9AEC08F0030018EC0BF0580E46
:10153200066E9AEC08F0180E066E9AEC08F00B0E86
:101542000A6E260E096E5E0EE82EFED7092EFCD715
:101552000A2EFAD718EC0BF01200600EF66E160E79
:10156200F76E000EF86E0900F5CF4BF00001866BA6
:10157200856B846B4A6A4C904C92000EF86E0001A7
:10158200C7EF09F00C6E0C50016E026A036A8E0EF0
:10159200046E000E056EF5EC07F001C009F002C002
:1015A2000AF003C00BF012000600F2A40DD00B0EDD
:1015B200D76EDC0ED66EF29482B402D0828401D051
:1015C2008294010E0001846F4C921100C280C2828B
:1015D200C2B2FED7000EC35C020EC458D8A002D01D
:1015E200818001D08190C2901200016E040E011818
:1015F200D8B404D0080E0118D8A4120001C04BF0D0
:101602001200056E8C8005504AEC0AF022EC0BF0B9
:10161200040E94EC09F01200056E8C9005504AEC11
:101622000AF022EC0BF0040E94EC09F012008C90FC
:10163200010E4AEC0AF022EC0BF0020E94EC09F0D7
:1016420012008C821A0EE82EFED700D08C92120065
:0F165200016EACA2FED701C0ADFF12001200085E
:020000040020DA
:08000000FFFFFFFFFFFFFFFF00
:020000040030CA
:0E00000000091F12FF8385FF0FC00FE00F40A5
:00000001FF
