:0400000007EF00F016
:0A0008001F82F1ED06F0DFEF06F0B5
:10080000005072756562612041444300486F6C611D
:10081000206D756E646F00008C8057D10DC001F0A3
:100820000EC002F0000E046E0A0E036E97EC06F086
:100830000150156E1550300F0FEC07F01200000E2E
:10084000046E640E036E0DC001F00EC002F097EC52
:1008500006F001C006F002C007F0000E096E0A0E95
:10086000086E4BEC06F00650146E0DC001F00EC081
:1008700002F0000E046E0A0E036E97EC06F00150B3
:10088000156E1450300F0FEC07F01550300F0FECB1
:1008900007F01200030E046EE80E036E0DC001F0A7
:1008A0000EC002F097EC06F001C006F002C007F09F
:1008B000000E096E640E086E4BEC06F006C012F0D6
:1008C00007C013F0000E046E640E036E0DC001F03D
:1008D0000EC002F097EC06F001C006F002C007F06F
:1008E000000E096E0A0E086E4BEC06F00650146EF0
:1008F0000DC001F00EC002F0000E046E0A0E036E71
:1009000097EC06F00150156E1250300F0FEC07F007
:100910001450300F0FEC07F01550300F0FEC07F0AC
:100920001200270E046E100E036E0DC001F00EC0F3
:1009300002F097EC06F001C006F002C007F0030ECB
:10094000096EE80E086E4BEC06F006C010F007C00A
:1009500011F0030E046EE80E036E0DC001F00EC020
:1009600002F097EC06F001C006F002C007F0000E9E
:10097000096E640E086E4BEC06F006C012F007C05C
:1009800013F0000E046E640E036E0DC001F00EC075
:1009900002F097EC06F001C006F002C007F0000E6E
:1009A000096E0A0E086E4BEC06F00650146E0DC070
:1009B00001F00EC002F0000E046E0A0E036E97ECFA
:1009C00006F00150156E1050300F0FEC07F012506A
:1009D000300F0FEC07F01450300F0FEC07F01550EC
:1009E000300F0FEC07F012000DC006F00EC007F03C
:1009F000270E096E100E086E4BEC06F00650300FF5
:100A00000FEC07F0270E046E100E036E0DC001F000
:100A10000EC002F097EC06F001C006F002C007F02D
:100A2000030E096EE80E086E4BEC06F006C010F0DF
:100A300007C011F0030E046EE80E036E0DC001F046
:100A40000EC002F097EC06F001C006F002C007F0FD
:100A5000000E096E640E086E4BEC06F006C012F034
:100A600007C013F0000E046E640E036E0DC001F09B
:100A70000EC002F097EC06F001C006F002C007F0CD
:100A8000000E096E0A0E086E4BEC06F00650146E4E
:100A90000DC001F00EC002F0000E046E0A0E036ECF
:100AA00097EC06F00150156E1050300F0FEC07F068
:100AB0001250300F0FEC07F01450300F0FEC07F00E
:100AC0001550300F0FEC07F012000F50010AD8B488
:100AD000A5D6030AD8B4B3D6010AD8B4DBD6070A20
:100AE000D8B41FD7010AD8A412007ED7010EC26E57
:100AF0000D0EC16E880EC06E000E956E000E8C6ECF
:100B0000020E176E450E166EAA0EE82EFED7162E92
:100B1000FCD7172EFAD7040E03EC07F0D2EC05F041
:100B20000C0E066EB8EC06F0C00E1AEC07F0010EC3
:100B3000066EB8EC06F0030E176E8A0E166E560E91
:100B4000E82EFED7162EFCD7172EFAD7000ECCECC7
:100B500006F001C018F002C019F0010ECCEC06F04E
:100B600001C01AF002C01BF025EC07F018C00DF010
:100B700019C00EF0040E0F6E0CEC04F0C00E1AEC4F
:100B800007F01AC00DF01BC00EF0040E0F6E0CEC37
:100B900004F0A30E166E550EE82EFED7162EFCD7C7
:100BA00000F0D4D78C90040E1E18D8A404D08C501A
:100BB0000F0B300901D03F0E8C6E2FEC07F0010EA9
:100BC00020EC06F0040E1E18D8A404D08C500F0B95
:100BD000300901D03F0E8C6E2FEC07F0030E20EC95
:100BE00006F0040E1E18D8A404D08C500F0B300948
:100BF00001D03F0E8C6E2FEC07F0040E20EC06F0B7
:100C0000040E1E18D8A411D08C500F0B20098C6E26
:100C10002FEC07F0040E20EC06F02F0E74EC06F01B
:100C20002FEC07F0040E20EC06F025EC07F00F0E79
:100C300074EC06F02FEC07F0040E20EC06F0120026
:100C4000026E1BD0050E016EDE0EE82EFED7012EC1
:100C5000FCD71200530EE82EFED700F0350EE82E1A
:100C6000FED700F01200080EE82EFED700F01200AA
:100C7000030EE82EFED700F012000250010AD8B48D
:100C8000E1D7030AD8B4E6D7010AD8B4ECD7070AEB
:100C9000D8A41200EDD7000E0B6E000E0A6E08509D
:100CA0000910D8B41CD0010E0C6E04D0D8900836B0
:100CB00009360C2A09AEFAD7D8900A360B360850F6
:100CC000065C09500758D8A005D00850065E0950A8
:100CD000075A0A80D890093208320C2EEDD70AC084
:100CE00006F00BC007F01200046E040E1E18D8A404
:100CF00017D004C003F0F00E03168C500F0B031036
:100D00008C6E2FEC07F0010E20EC06F004C003F00F
:100D1000033AF00E03168C500F0B03108C6E12006A
:100D2000080E1E18D8A4120004C08CFF1200035035
:100D30000410D8B418D0010E056E04D0D890033634
:100D40000436052A04AEFAD70350015C0450025859
:100D5000D8A004D00350015E0450025AD890043247
:100D60000332052EF1D701C001F002C002F01200DB
:100D700009D006C0F6FF080EF76E0800F5500FEC1C
:100D800007F0062A06C0F6FF080EF76E0800F550B9
:100D90000009D8B41200EDD7046E04C003F0D89057
:100DA0000336D8900336C250030B0310C26EC282C2
:100DB000C2B2FED7C3CF01F0C4CF02F012006C0E56
:100DC000F66E0E0EF76E000EF86E0900F5CF1EF0EF
:100DD0001D6A1C6A1F901F92000EF86E000176EFCC
:100DE00005F006009EA00DD09E90EC0ECF6E780E02
:100DF000CE6EF50E1C24BE6EEC0E1D20BF6E090ECD
:100E0000BD6E1F921100016E040E0118D8B404D0FB
:100E1000080E0118D8A4120001C01EF01200056EC1
:100E20008C80055074EC06F02FEC07F0040E20ECDB
:100E300006F01200056E8C90055074EC06F02FEC55
:100E400007F0040E20EC06F012008C90010E74ECFA
:100E500006F02FEC07F0020E20EC06F012008C8258
:0D0E6000030EE82EFED700F08C9212000861
:020000040020DA
:08000000FFFFFFFFFFFFFFFF00
:020000040030CA
:0E00000000091F1EFF8385FF0FC00FE00F4099
:00000001FF
