:020000040000FA
:100000000F0EC16E956A8C6AE30E936E8A689268D1
:10001000000E006E8DEC00F080B416EF00F011EFD2
:1000200000F08A6865EC00F008EF00F08DEC00F05D
:1000300080B21DEF00F02BEF00F0000608E6000E86
:10004000006234EF00F0060E006E34EF00F0010E97
:10005000006E34EF00F0002A070E006234EF00F06B
:10006000010E006E34EF00F000C001F00106070E33
:10007000FA6E014480EC03F08C6E080EFA6E0144B7
:1000800000EC04F08A6E8DEC00F080B04DEF00F0D3
:100090008A6A51EC00F00AEF00F079EC00F00AEF08
:1000A00000F0B90E026E900E036E3E0E046E022E2C
:1000B00057EF00F0B90E026E032E57EF00F0900ECE
:1000C000036E042E57EF00F012008F0E026EC00E6A
:1000D000036E180E046E022E6BEF00F08F0E026E90
:1000E000032E6BEF00F0C00E036E042E6BEF00F0DA
:1000F0001200400E026E910E036E070E046E022E69
:100100007FEF00F0400E026E032E7FEF00F0910EA5
:10011000036E042E7FEF00F01200DC0E026E050E5F
:10012000036E030E046E022E93EF00F0DC0E026EDF
:10013000032E93EF00F0050E036E042E93EF00F0F4
:020140001200AB
:0E070000F926050CEE0CED0C9D0CF90CFB0C13
:0E080000F926EB0CFB0CF30CF70CE70CEF0CDD
:020000040030CA
:0100000000FF
:010001000CF2
:010002001FDE
:010003001EDE
:010005008377
:010006008574
:010008000FE8
:01000900C036
:01000A000FE6
:01000B00E014
:01000C000FE4
:01000D0040B2
:00000001FF
